:03000000020DE10D
:0C0DE100787FE4F6D8FD75814A020E28E8
:0711E100D2B61211E8C2B6FC
:0611E800E4FF0FBF02FC52
:0111EE0022DE
:06111800C2B5C2B6D2B55B
:02111E00AE071A
:10112000E4FDEE1392B41211E81211E1EEC313FEC6
:041130000DBD08EEFB
:011134002298
:10118100E4FEFDEEC313FE30B4034306801211E109
:061191000DBD08EFAF06E2
:011197002235
:0411BF00E4FD7F8E3E
:0D11C300AC05121118AF0412111EC2B522A6
:0A11FB00121118121181C2B5C2B61C
:0112050022C6
:101135001211BF7F811211FBEF30E707E4FD7F80BD
:0A1145001211C3E4FD7F8E0211C3F6
:100F9A007F811211FBEF120C007F831211FB90006C
:100FAA0001EF120C127F851211FB900002EF120C56
:100FBA00127F871211FB900003EF120C127F891225
:100FCA0011FB900004EF120C127F8B1211FB9000A0
:100FDA0005EF120C127F8D1211FB900006EF020C26
:010FEA0012F4
:100F3F001211BF120BBAFD7F801211C39000011264
:100F4F000BD3FD7F821211C3900002120BD3FD7FD2
:100F5F00841211C3900003120BD3FD7F861211C3AD
:100F6F00900004120BD3FD7F881211C3900005125D
:100F7F000BD3FD7F8A1211C3900006120BD3FD7F96
:0B0F8F008C1211C37D807F8E0211C305
:0B120600EF25E024C04401FF0211FBB3
:02114F00AB05EE
:10115100EF25E024C0FA1211BFAF02AD031211C393
:071161007D807F8E0211C3A7
:0611D000D2A77F327E0071
:0B11D600EF1FAC0670011E4C70F622EB
:1010A900AD07C2A6C2A58D801211D0C2A7ED6401F9
:0510B9006003BD0213FD
:1010BE007548077549D0E5491549AE48700215487F
:0310CE004E70F36E
:0110D10022FC
:0C11EF00D2A6C2A58F801211D0C2A72288
:061073008B458A46894707
:10107900EF60047F4080027F00EF2D4480FF121053
:10108900A9AB45AA46A947120BBA60130547E5471C
:0F1099007002054614F9120BBAFF1211EF80E234
:0110A8002225
:080EE0008F398D3A8A3B8B3CEF
:100EE800E53DD394054003753D05E4F53EE53EC375
:100EF800953D5030AE3BAF3C7C007D0A120C34ED82
:100F08002430FFE53EFDE53DC39DFD743E2DF8A66A
:100F180007AE3BAF3C7C007D0A120C348E3B8F3C05
:100F2800053E80C9743F253DF8E4F6FB7A00793F19
:070F3800AD3AAF390210735E
:101198007F381210A97F0C1210A97F061210A97FA0
:0411A800010210A987
:100970003230002D005700430020003A0020202094
:10098000202020200020414D0020504D00416C616E
:10099000726D3A0052494E47004F4E20004F464676
:1009A0000053657420416C61726D2054696D65203F
:1009B00020003E00486F75722020004D696E7574EE
:1009C00065005365742053797374656D2054696DA7
:1009D0006520003E596561723A20323000202020A7
:1009E0002020003E4D6F6E74683A2020003E446126
:1009F000793A20202020003E486F75723A2020204E
:100A0000003E4D696E7574653A20003E5765656B12
:100A10003A20202000202020202020002052544373
:100A200020496E76616C6964212020200020506C82
:100A300065617365205365742054696D65200020DD
:100A400020536D61727420436C6F636B2020200013
:100A500020205374617274696E672E2E2E20202020
:100A60000020416C61726D3A204F4E2020202020E2
:100A70000020416C61726D3A204F464620202020B4
:100A80000020416C61726D205361766564212020E5
:100A90002000202020202020202020202020202076
:100AA00020200020496E76616C69642054696D6570
:100AB0002120200020536176652041626F727465A9
:100AC00064202020002054696D65205361766564A0
:060AD0002120202020007F
:10103600012807012900011F0001250001210101E6
:101046001C000124000111000123000126000120DB
:1010560000011D00011B00012700011A00011E00EE
:0C106600012200011200010800010963D2
:1010F600751B01E4F54AC2A07F287E001210D6D2E5
:10110600A07F287E001210D6054AE54AC394064001
:01111600E5F3
:0111170022B5
:060C89007B007A007913E4
:060C8F008B338A34893525
:100C9500120BBAFF1211728F369000011211688F74
:100CA500379000021211688F38AB33AA34A93590FA
:100CB500000312116E8F39AB33AA34A935900004A5
:100CC50012116E8F3AAB33AA34A935900005121173
:100CD5006E8F3BAB33AA34A93590000612116EE531
:100CE50036D3943B40037F0022E537D3943B400342
:100CF5007F0022E538D3941740037F0022E539C3EE
:100D050094014007E539D3941F40037F0022E53A5B
:100D1500C394014007E53AD3940C40037F0022E5D4
:100D25003BC394014007E53BD3940740037F002272
:0B0D3500EFD3946340037F00227F0196
:010D40002290
:0A116800AB33AA34A935120BD3FFF4
:0F117200EFC4540F75F00AA4FEEF540F2EFF22A6
:1011AC00EF75F00A84C454F0FEEF75F00A84E5F094
:0311BC004EFF22C1
:0410D2007FC87E0055
:1010D600E4FDFCC3ED9FEC9E5015E4FBFA0BBB0050
:0F10E600010AEB64784A70F50DBD00010C80E43F
:0110F50022D8
:100FEB00E4FF20B1030F801320B0047F02800C209C
:100FFB00B2047F03800520B3027F04EF6023E50872
:10100B007008750801F526F520220526E526D394F0
:10101B001E4015752001E52675F00584E5F0700876
:0A102B0022E4F508F526F5207F0009
:011035002298
:100E6D00AF15121172AD07AF14121172AC07AF139B
:100E7D00121172E5216020EDB5281CECB52918EF93
:100E8D00D394055012E51F700E751F01F525C2A0F4
:100E9D00752701F51AF51EE51F60160525C3E52515
:100EAD00942C748094814009E4F51FF525D2A0F5AA
:100EBD0027E51F601D30B10930B00630B20320B3F5
:100ECD0011E4F51FF525D2A0F5277F011210A91207
:020EDD0010D231
:010EDF0022F0
:100676007B007A007913120F9A7BFF7A097970E46E
:10068600FDFF121073AF19121172EFFB7A00753D60
:10069600027D02E4FF120EE07BFF7A0979737D0486
:1006A600E4FF121073AF17121172EFFB7A00753D5B
:1006B600027D05E4FF120EE07BFF7A0979737D0760
:1006C600E4FF121073AF16121172EFFB7A00753D3C
:1006D600027D08E4FF120EE07BFF7A0979757D0B37
:1006E600E4FF121073AF18121172EFFB7A00753D1A
:1006F600017D0CE4FF120EE0E5127BFF60067A092D
:10070600797780047A0979797D0FE4FF121073AF47
:10071600151211728F33E5227056EFFB7A00753D84
:1007260002E4FD7F01120EE07BFF7A09797B7D02F0
:100736007F01121073AF14121172EFFB7A00753D30
:10074600027D037F01120EE07BFF7A09797B7D052E
:100756007F01121073AF13121172EFFB7A00753D11
:10076600027D067F01120EE07BFF7A09797D807D8E
:10077600E533700575340C8012E533D3940C5005BF
:100786008533348006E53324F4F534E534FB7A000A
:10079600753D02E4FD7F01120EE07BFF7A09797B4D
:1007A6007D027F01121073AF14121172EFFB7A00F3
:1007B600753D027D037F01120EE07BFF7A09797B8E
:1007C6007D057F01121073AF13121172EFFB7A00D1
:1007D600753D027D067F01120EE0E533C3940C7B66
:1007E600FF50067A09798580047A0979897D097F1F
:0407F6000112107369
:0107FA0022DC
:100AD6007B007A007913120F9A7BFF7A097970E40A
:100AE600FDFF121073AF19121172EFFB7A00753DFC
:100AF600027D02E4FF120EE07BFF7A0979737D0422
:100B0600E4FF121073AF17121172EFFB7A00753DF6
:100B1600027D05E4FF120EE07BFF7A0979737D07FB
:100B2600E4FF121073AF16121172EFFB7A00753DD7
:100B3600027D08E4FF120EE07BFF7A0979757D0DD0
:100B4600E4FF121073AF18121172EFFB7A00753DB5
:100B5600017D0EE4FF120EE07BFF7A09798DE4FD3C
:100B66007F01121073E528FB7A00753D027D077F31
:100B760001120EE07BFF7A09797B7D097F01121055
:100B860073E529FB7A00753D027D0A7F01120EE0AE
:100B9600E51F60087BFF7A0979948010E5217BFFC9
:100BA60060067A09799980047A09799D7D0D7F011D
:040BB6001210732284
:100D41007BFF7A0979A1E4FDFF121073E5237BFF94
:100D5100703D7A0979B2FD7F01121073E528FB7AA3
:100D610000753D027D027F01120EE07BFF7A097959
:100D71007B7D047F01121073E529FB7A00753D022A
:100D81007D067F01120EE07BFF7A0979B480497AF2
:100D9100097979E4FD7F01121073E528FB7A00756A
:100DA1003D027D027F01120EE07BFF7A09797B7D96
:100DB100047F011210737BFF7A0979B27D067F01EE
:100DC100121073E529FB7A00753D027D077F011240
:100DD1000EE07BFF7A0979BB7D097F011210732236
:1007FB00E5116027AF0C1211728F33AF0B12117210
:10080B008F34AF0D1211728F35AF0E1211728F36EE
:10081B00AF101211728F37AF0F802E7B007A0079D9
:10082B0013120F9AAF151211728F33AF141211727C
:10083B008F34AF161211728F35AF171211728F36AC
:10084B00AF191211728F37AF181211728F387BFFDD
:10085B007A0979C2E4FDFF121073E5241460431486
:10086B0060671470030208FA1470030209201470F5
:10087B00030209462405600302096F7BFF7A09799D
:10088B00D3E4FD7F01121073E537FB7A00753D024F
:10089B007D097F01120EE07BFF7A0979DD7D0B026A
:1008AB00096A7BFF7A0979E3E4FD7F01121073E596
:1008BB0036FB7A00753D027D087F01120EE07BFF4F
:1008CB007A0979DD7D0A02096A7BFF7A0979EDE401
:1008DB00FD7F01121073E535FB7A00753D027D0833
:1008EB007F01120EE07BFF7A0979DD7D0A80707B38
:1008FB00FF7A0979F7E4FD7F01121073E533FB7A78
:10090B0000753D027D087F01120EE07BFF7A0979AD
:10091B00DD7D0A804A7BFF7A0A7901E4FD7F0112B3
:10092B001073E534FB7A00753D027D087F01120ED2
:10093B00E07BFF7A0979DD7D0A80247BFF7A0A79D7
:10094B000BE4FD7F01121073E538FB7A00753D0156
:10095B007D087F01120EE07BFF7A0A79157D097FF6
:04096B0001121073F2
:01096F002265
:10000300121198121135D2A0E4FF121206BFAA17DB
:100013007F011212068F287F021212068F297F0397
:100023001212068F21801C7DAAE4FF12114FAD2806
:100033007F0112114FAD297F0212114FAD217F03B2
:1000430012114F7B007A007913120F9A120C89EF69
:100053007062751D017BFF7A0A791CFDFF12107314
:100063007BFF7A0A792DE4FD7F011210737FDC7E1A
:10007300051210D67F011210A9751C03751101E436
:10008300F524FF1211AC8F0AE4FF1211AC8F0B7F22
:100093000C1211AC8F0C7F011211AC8F0D7F01126A
:1000A30011AC8F0E7F011211AC8F0F7F191211AC9F
:1000B3008F1080257BFF7A0A793FE4FDFF121073CE
:1000C3007BFF7A0A7950E4FD7F011210737FE87E8B
:1000D300031210D67F011210A9E4FF121206BFAA61
:1000E300107F041212068F227F051212068F1280D0
:1000F3000EE4FD7F0412114FE4FD7F0512114FE55D
:100103001CB40304E51170097B007A007913120F04
:100113009A120FEB8F2AE52AB40115E51170110528
:100123001CE51CD394034003E4F51C7F011210A9C2
:10013300E51C14606114700302021F1470030202B1
:10014300EB240360030205FDE51B7003120676E54D
:100153002AB40318E52270047F0180027F008F22F6
:10016300AD227F0412114F7F011210A9E52A640406
:1001730060030205FDE51270047F0180027F008F9A
:1001830012AD127F0512114FC2A07F647E001210C0
:10019300D6D2A00205FDE51B7003120AD6E5117045
:1001A30035E52A6403702FE51F701A751F01F525C5
:1001B300C2A0752701F51AF51E20B21A7F0A7E0028
:1001C3001210D680F4E4F51FF525D2A0F5277F01A0
:1001D3001210A91210D2E51160030205FDE52A648D
:1001E3000260030205FDE52170047F0180027F00A8
:1001F3008F21E52160047D0180027D00E4FF12115F
:100203004FE5217BFF60067A0A796180047A0A79D7
:1002130071E4FDFF1210737F200202E3E5117014F5
:10022300120D41E52A640160030205FD751101F514
:10023300230205F8120D41E52AB4020FE5237004E9
:100243007F0180027F008F231210D2E52A6403709E
:1002530028E523700E0528E528C394184011E4F51A
:1002630028800C0529E529C3943C4003E4F529E5DE
:100273002070067FC8FE1210D6E52A64047026E5B6
:1002830023700DE5287005752817800F1528800B3E
:10029300E529700575293B80021529E52070067F45
:1002A300C8FE1210D6E52A640160030205FDAD28DD
:1002B3007F0112114FAD297F0212114FAD217F0330
:1002C30012114FE4F5117BFF7A0A7981FDFF1210B9
:1002D300737BFF7A0A7992E4FD7F011210737FE842
:1002E3007E031210D60205F8E511702B1207FBE509
:1002F3002A640160030205FD751101F524F52B74D1
:1003030013252BF8E6FF740A252BF8A607052BE522
:100313002BB407EB0205F81207FBE52AB4020F051D
:1003230024E524D394054003E4F5241210D2E52AEE
:1003330064036003020409E52414603614604F1457
:1003430060681470030203C91470030203E52405F3
:0503530060030203FF3E
:10035800AF101211728F2C052CE52CD39463400337
:0A036800E4F52CAF2C1211AC8F103D
:030372000203FF84
:10037500AF0E1211728F2C052CE52CD3940C400373
:0A038500752C01AF2C1211AC8F0E85
:02038F00806E7E
:10039100AF0D1211728F2C052CE52CD3941F400345
:0A03A100752C01AF2C1211AC8F0D6A
:0203AB0080527E
:1003AD00AF0C1211728F2C052CE52CC39418400341
:0A03BD00E4F52CAF2C1211AC8F0CEC
:0203C70080367E
:1003C900AF0B1211728F2C052CE52CC3943C400302
:0A03D900E4F52CAF2C1211AC8F0BD1
:0203E300801A7E
:1003E500AF0F1211728F2C052CE52CD39407400307
:0A03F500752C01AF2C1211AC8F0F14
:1003FF00E52070067FC8FE1210D6E52A640460035C
:10040F000204DBE52414603214604B146064146042
:0E041F007C1470030204B7240560030204D1AC
:10042D00AF101211728F2CE52C7005752C638002A4
:09043D00152CAF2C1211AC8F102C
:030446000204D1DC
:10044900AF0E1211728F2CE52CB40105752C0C809E
:0A04590002152CAF2C1211AC8F0E0F
:02046300806CAB
:10046500AF0D1211728F2CE52CB40105752C1F8070
:0A04750002152CAF2C1211AC8F0DF4
:02047F008050AB
:10048100AF0C1211728F2CE52C7005752C178002A0
:09049100152CAF2C1211AC8F0CDC
:02049A008035AB
:10049C00AF0B1211728F2CE52C7005752C3B800262
:0904AC00152CAF2C1211AC8F0BC2
:0204B500801AAB
:1004B700AF0F1211728F2CE52CB40105752C078034
:0A04C70002152CAF2C1211AC8F0FA0
:1004D100E52070067FC8FE1210D6E52A640160038C
:0704E1000205FDF511F524F1
:1004E800AF0A1211728F2CAF0B1211728F2DAF0C35
:1004F8001211728F2EAF0D1211728F2FAF0E1211B3
:10050800728F30AF0F1211728F31AF101211728FBC
:1005180032E52CD3943B503CE52D943B5036E52EE8
:1005280094175030E52FC394014029E52FD3941F29
:100538005022E530C39401401BE530D3940C50148D
:10054800E531C39401400DE531D394075006E532F7
:100558009463403F7BFF7A0A79A3E4FDFF1210738E
:100568007BFF7A0A79B4E4FD7F011210737FE87E7D
:10057800031210D67F011210A9E4F52B740A252B5B
:10058800F8E6FF7413252BF8A607052BE52BB4070F
:03059800EB806293
:10059B00E4FF1211AC8F0A7B007A00790A120F3F2D
:1005AB001210D27B007A007913120F9A120C89EF7A
:1005BB007017F52B740A252BF8E6FF7413252BF80F
:1005CB00A607052BE52BB407EBE4F51CF51D7BFF0C
:1005DB007A0A79C5FDFF1210737BFF7A0A7992E4D0
:1005EB00FD7F011210737FE87E031210D67F01127C
:0505FB0010A9120E6DB5
:10060000AF131211728F2CAF141211728F2DE512CD
:100610006028E52D7024E52C7020E509652C60210B
:10062000C2A07F647E001210D6D2A01210D6C2A043
:100630001210D6D2A0852C098007E52C600375091D
:010640006356
:10064100E5276027051AE51AC394024005E4F51A67
:10065100B2A0051EE51EC3940A4010E4F51EE51C78
:10066100B40105120AD680031206767F327E00128B
:0506710010D602010299
:100DED00020003E493A3F8E493A34003F68001F219
:100DFD0008DFF48029E493A3F85407240CC8C33307
:100E0D00C4540F4420C8834004F456800146F6DFD5
:100E1D00E4800B0102040810204080901036E47E1F
:100E2D00019360BCA3FF543F30E509541FFEE493CA
:100E3D00A360010ECF54C025E060A840B8E493A391
:100E4D00FAE493A3F8E493A3C8C582C8CAC583CABC
:100E5D00F0A3C8C582C8CAC583CADFE9DEE780BE74
:01107200007D
:100BBA00BB010689828A83E0225002E722BBFE0239
:090BCA00E32289828A83E493226C
:100BD300BB010CE58229F582E5833AF583E02250D7
:100BE30006E92582F8E622BBFE06E92582F8E22221
:0D0BF300E58229F582E5833AF583E493223B
:100C0000BB010689828A83F0225002F722BBFE01D3
:020C1000F322CD
:100C1200F8BB010DE58229F582E5833AF583E8F018
:100C2200225006E92582C8F622BBFE05E92582C8C4
:020C3200F222AC
:100C3400BC000BBE0029EF8DF084FFADF022E4CCA4
:100C4400F875F008EF2FFFEE33FEEC33FCEE9DEC6D
:100C5400984005FCEE9DFE0FD5F0E9E4CEFD22EDB3
:100C6400F8F5F0EE8420D21CFEADF075F008EF2FFD
:100C7400FFED33FD4007985006D5F0F222C398FDEE
:050C84000FD5F0EA228B
:00000001FF
